:020000040800F2
:1000000010D801205D02000813580008C93C000800
:1000100011580008B50D0008ED740008000000003C
:100020000000000000000000000000009D0100082A
:100030009111000800000000F9010008D9600008D3
:100040007702000877020008770200089D5900082F
:10005000770200087702000877020008770200089C
:10006000770200087702000877020008770200088C
:10007000D10D000877020008DD0D000877020008A6
:10008000770200087702000877020008770200086C
:10009000770200087702000877020008770200085C
:1000A000770200087702000877020008770200084C
:1000B0005D610008770200087702000877020008F7
:1000C000770200087702000877020008770200082C
:1000D0007702000871740008770200089574000820
:1000E00077020008755800087702000877020008B8
:1000F00077020008770200087702000877020008FC
:1001000077020008FD59000877020008770200080E
:10011000770200087702000877020008656200088D
:10012000770200087702000877020008E90D00084E
:1001300077020008770200087702000877020008BB
:1001400077020008770200087702000877020008AB
:1001500077020008F50D0008010E0008770200087C
:10016000770200087702000877020008770200088B
:1001700077020008770200087702000800000000FC
:100180007702000877020008DFF80CD000F07AFC54
:10019000004800475958020810D801202C4B196814
:1001A0000868B0E8F04F80F30988BFF36F8F4FF015
:1001B000000080F3118870470000000008480068C4
:1001C000006880F308884FF0000080F3148862B65E
:1001D00061B6BFF34F8FBFF36F8F00DF00BF00BF6B
:1001E00008ED00E0DFF80C00016841F470010160E7
:1001F000704700BF88ED00E0EFF30980BFF36F8F19
:10020000134B1A681EF0100F08BF20ED108A20E96A
:10021000F04F106009B44FF0600080F31188BFF315
:100220004F8FBFF36F8F2AF065FB4FF0000080F314
:10023000118809BC19680868B0E8F04F1EF0100F6B
:1002400008BFB0EC108A80F30988BFF36F8F704746
:1002500028010020EFF30580704700000648804722
:1002600006480047FEE7FEE7FEE7FEE7FEE7FEE79B
:10027000FEE7FEE7FEE7FEE70561000889010008EA
:100280002DE9F05F0546002092469B4688460646CB
:10029000814640241BE0284641464746224600F05E
:1002A000D2FA53465A46C01A914110D31146184605
:1002B000224600F0B9FA2D1A67EB01084F46224694
:1002C0000120002100F0B0FA17EB00094E41201E7A
:1002D000A4F10104DFDC484631462A464346BDE826
:1002E000F09F40EA01039B0703D009E008C9121FF1
:1002F00008C0042AFAD203E011F8013B00F8013BE0
:10030000521EF9D27047D2B201E000F8012B491E0B
:10031000FBD270470022F6E710B513460A460446A2
:100320001946FFF7F0FF204610BD421C10F8011BD4
:100330000029FBD1801A704710B5002200E0521C42
:10034000835C8C5CA34201D1002BF8D1D8B2E1B21E
:10035000401A10BD30B504460020034600E05B1C87
:10036000934203D2E05CCD5C401BF8D030BD034625
:1003700011F8012B00F8012B002AF9D1184670471B
:100380002DE9FE4F804681EA0300C00F0C46009025
:1003900021F0004123F00045B8EB0200A94105D24D
:1003A0004046214690461C460B46024623F000403C
:1003B000104347D0270DC7F30A00C3F30A51029038
:1003C000401A019040286BDAC3F3130040F4801BFD
:1003D0000098924620B10023D2EB030A63EB0B0B8B
:1003E00001985946C0F14002504600F01DFA0646F9
:1003F0000D4650465946019A00F035FA10EB0800B8
:100400006141002487EA115284EAE7731A4340D01D
:10041000009A62B3019A012A4FEA075215DC001BC9
:1004200061EB02014FF0004202EA0752CDE90042BF
:10043000001C41F5801132462B4600F06CFA03B0E7
:10044000BDE8F08F40462146F9E7001B61EB020151
:10045000001C41F5801300185B412018A2F500171D
:1004600047EB030140EAD570B6196D4111E06D0804
:100470004FEA360645EAC0754FEA0752001B61EBAA
:100480000201001C41F5801149084FEA30000019B3
:10049000514132462B4603B0BDE8F04F00F02CBA74
:1004A0000098012240000023D0EB020263EBE073CE
:1004B000009821464FEAE074B8EB000061EB0401BC
:1004C000E9E783F000435BE781F0004158E72DE95D
:1004D000FE4F81EA030404F0004421F0004100943F
:1004E0004FF0000B23F0004350EA01045ED052EAC3
:1004F00003045BD0C3F30A54C1F30A552C44A4F29D
:10050000F3340194A0FB0254C1F3130141F48011B0
:10051000C3F3130343F4801301FB024400FB034EB7
:10052000840A970A44EA815447EA8357A4FB076880
:1005300002958D0A05FB07854FEA932C04FB0C54AA
:100540002705029D4FEA065847EA1637B5EB08051E
:100550006EEB070C870E920E47EA811742EA831270
:10056000A7FB0201B6EB0B0164EB00042B0D43EA81
:100570000C335E1844EB1C50DA465146E7FB02018F
:10058000C5F313044FEA0B3343EA14534FEA043222
:10059000019C43EA0603A4F10C040294009CCDE9FB
:1005A00000B400F0B8F903B0BDE8F08F00200146B8
:1005B000F9E72DE9F04D81EA030404F0004B21F046
:1005C000004514464FF0000A23F0004150EA0502AE
:1005D00020D054EA01021DD0C5F30A570246C5F3E4
:1005E0001303C1F31300C1F30A5640F4801543F41A
:1005F0008013A7EB0608101BD64608F2FD3873EBF4
:10060000050002D308F1010801E092185B41B8F13E
:10061000000F03DA00200146BDE8F08D00204FF402
:100620008011064684460EE0171B73EB050705D3C1
:10063000121B63EB050306434CEA010C49084FEA21
:10064000300092185B4150EA0107EDD152EA0300F5
:1006500012D082EA040083EA0501084305D0101B8A
:10066000AB4106D20122002306E000224FF00043F6
:1006700002E06FF0010253101AEB06004CEB085138
:1006800010EB0A0041EB0B01BDE8F04D00F034B96E
:100690000EB5C10F80EAE0700844CA07002140F29D
:1006A00033438DE80E000A460B4600F034F903B0E0
:1006B00000BD0EB540F2334102910021CDE9001199
:1006C0000A460B4600F027F903B000BD70B5C1F330
:1006D0000A5201F000450024C1F3130140F2FF3338
:1006E00041F480119A4201DA002070BD40F2334398
:1006F0009A42A2F2334203DC524200F0A4F800E036
:1007000090402C43F1D0404270BDC1F30A5210B565
:10071000C1F3130140F2FF3341F480119A4201DA30
:10072000002010BD40F233439A42A2F2334203DC70
:10073000524200F088F810BD904010BD00F0004219
:1007400030F000400AD0C10D01F56071C0F3160011
:1007500042EA0151C2084007114370470020014698
:100760007047000030B5041E71F1000404DB4FF047
:100770000044404264EB0101141E73F1000405DBE8
:100780001C464FF00043524263EB04038B4208BF08
:10079000824230BD30B5041E71F1000404DB4FF01D
:1007A0000044404264EB0101141E73F1000405DBB8
:1007B0001C464FF00043524263EB0403994208BFCA
:1007C000904230BD01F0004330B421F0004150EAC6
:1007D000010206D00A0DA2F56072C1F31301002ACE
:1007E00002DC30BC00207047440F44EAC104C10061
:1007F000E01830BC00EBC25000F047B830B50B46F3
:10080000014600202022012409E021FA02F59D4240
:1008100005D303FA02F5491B04FA02F52844151E14
:10082000A2F10102F1DC30BD202A04DB203A00FAFB
:1008300002F1002070479140C2F1200320FA03F337
:10084000194390407047202A04DB203A21FA02F035
:100850000021704721FA02F3D040C2F120029140FA
:10086000084319467047202A06DBCB17203A41FA85
:1008700002F043EAE07306E041FA02F3D040C2F12D
:10088000200291400843194670470029A8BF7047CD
:10089000401C490008BF20F00100704710B4B0FAB6
:1008A00080FC00FA0CF050EA010404BF10BC704751
:1008B00049B1CCF1200421FA04F411FA0CF118BF6B
:1008C000012121430843A3EB0C01CB1D4FEA00613A
:1008D0004FEA102042BF002010BC704700EBC3500D
:1008E00010440029A4BF10BC7047401C490008BF39
:1008F00020F0010010BC704710B5141E73F1000405
:1009000008DA401C41F1000192185B411A4301D101
:1009100020F0010010BD2DE9F04D92469B4611B12B
:10092000B1FA81F202E0B0FA80F220329046FFF78D
:100930007BFF04460F4640EA0A0041EA0B0153469A
:100940005A46084313D0114653EA010019D0C8F1A2
:1009500040025046FFF777FF05460E46504659467F
:100960004246FFF761FF084305D0012004E020461E
:100970003946BDE8F08D0020054346EAE0762C4379
:1009800037430A986305E40AA0EB08000022FD0A39
:1009900044EA47540A3002D500200146E9E7010540
:1009A00010196941DDE9084500196941BDE8F04DBC
:1009B000A2E72DE9F04D00231A461B1A8A4103DBFA
:1009C00000200146BDE8F08DC1F30A52C1F31301C6
:1009D00041F480154FF0000BD10702D100186D4192
:1009E000521E0027044640F2FF11384601EB620A0E
:1009F0003E468046024600204FF48011FFF723FF59
:100A0000C2197141BB1846EB0100B4EB030C75EB46
:100A1000000C04D3E41A65EB000517460E462419B2
:100A200008F101006D4180463428E3DDF91946EBF9
:100A30000600091BA84103D24FF0FF32134601E024
:100A4000002213461BEB070046EB0A51BDE8F04DB0
:100A5000FFF752BFC1F30A52C1F3130140F2FF3353
:100A600041F480119A4202DA00200146704740F2B8
:100A700033439A42A2F2334202DC5242FFF7E3BE12
:100A8000FFF7D2BE064C074D06E0E06840F00103D8
:100A900094E8070098471034AC42F6D3FFF778FB90
:100AA00094B40308B4B4030870B58C1810F8015B53
:100AB00015F0070301D110F8013B2A1106D110F8F7
:100AC000012B03E010F8016B01F8016B5B1EF9D1FB
:100AD0002B0705D40023521E0DD401F8013BFAE781
:100AE00010F8013BCB1A921C03E013F8015B01F8EC
:100AF000015B521EF9D5A142D8D3002070BD70B55C
:100B000003F030FAA025284603F0FCF903F06CFA54
:100B1000FF2003F0F7F903F067FA03F023FAA120AE
:100B200003F0F0F903F060FA002003F08DF90446B9
:100B300003F038FA552C33D0552403F013FA284625
:100B400003F0E0F903F050FAFF2003F0DBF903F0C3
:100B50004BFA204603F0D6F903F046FA03F022FAE6
:100B60000A200EF085FA03F0FDF9284603F0CAF9D1
:100B700003F03AFAFF2003F0C5F903F035FA03F069
:100B8000F1F9A12003F0BEF903F02EFA002003F0E2
:100B90005BF9044603F006FA552C1CBF012070BD1A
:100BA000002070BD03F02CB92DE9F0470D0001467F
:100BB0004FF0000004461ABF4F194FF0A008BDE8DF
:100BC000F08700BF4FEA0029381B461E03F0CAF920
:100BD000300A08EB4000C0B203F094F903F004FAC5
:100BE000F0B203F08FF903F0FFF903F0BBF9A12095
:100BF00003F088F903F0F8F9002003F025F9064620
:100C000003F0D0F9611CCCB206EB0900A542D9D89B
:100C1000BDE8F08710B5044603F0A4F9200AA0212E
:100C200001EB4000C0B203F06DF903F0DDF9E0B272
:100C300003F068F903F0D8F903F094F9A12003F068
:100C400061F903F0D1F9002003F0FEF8044603F047
:100C5000A9F9204610BD2DE9F04716000F46804641
:100C60004FF0000414BF4FF0A00ABDE8F08708EB76
:100C70000405E00027FA00F000F0FF0903F072F924
:100C8000280A0AEB4000C0B203F03CF903F0ACF9CB
:100C9000E8B203F037F903F0A7F9484603F032F958
:100CA00003F0A2F903F07EF90A200EF0E1F9601CCE
:100CB000C4B2A642DBD8BDE8F08770B50D46044645
:100CC00003F050F9200AA02101EB4000C0B203F06C
:100CD00019F903F089F9E0B203F014F903F084F98B
:100CE000284603F00FF903F07FF903F05BF9BDE844
:100CF00070400A200EF0BCB970B5274C2DED028B68
:100D0000616A884204BFBDEC028B70BDA16A884253
:100D10001CBFBDEC028B70BD606B002804BFBDEC36
:100D2000028B70BD02F0D4FF1D48DFED1C0A20EEDF
:100D3000200A27F0A5FABDEEC00A10EE100A2081A5
:100D4000B4F90800FFF7A4FC9FED171B53EC112B1F
:100D5000FFF72FFC164D41EC180BF1EE000AE86B83
:100D600000EE100A30EE200A10EE100AFFF7E6FC43
:100D700053EC182BFFF7A5FBFFF724FDA864606B6D
:100D80000023BDEC028B1A46BDE87040194629F0DD
:100D90007BBF000000000000000000200000C842EF
:100DA000700000200000000000000000000059401A
:100DB000F0AE0120FEE70000044910B500200860F5
:100DC0005321312005F060FA002010BDF000002012
:100DD000014800F04FBB000050B30120014800F073
:100DE00049BB0000B0B301200148C06B00F042BB1A
:100DF000880700200148006C00F03CBB88070020F9
:100E0000014800F037BB0000F0B2012070B5154872
:100E10000025016821F44021016001680160124C45
:100E200004E0681CC5B201200EF052F9D4F8240287
:100E300010B1C82D11D2F4E7C82D38BF00250CD24F
:100E400004E0681CC5B201200EF042F9D4F8240277
:100E500028B1F02D3CBF002070BD012070BDF02DE9
:100E6000EFD3FAE700040240008040420000000097
:100E70002DE9F05FDFF83892D9F8000020F4402027
:100E8000C9F80000D9F8000040F48020C9F800003B
:100E9000884C0026C4F8A46240F2EE200EF018F947
:100EA0004FF0010AC4F8A4A20F200EF011F9D9F8EE
:100EB0000000002520F44020C9F80000D9F8000007
:100EC000C9F8000004E0681CC5B201200EF000F96A
:100ED000D4F8240210B1C82D0FD2F4E7C82D38BFC2
:100EE00000250AD204E0681CC5B201200EF0F0F81B
:100EF000D4F8240208B9F02DF5D3CC2000F018F96D
:100F0000442000F015F9D9F8000020F44020C9F879
:100F10000000D9F8000040F48020C9F80000C4F8AF
:100F2000A46240F2EE200EF0D3F8C4F8A4A20F2081
:100F30000EF0CEF8D9F80000002520F44020C9F8C2
:100F40000000D9F80000C9F8000004E0681CC5B230
:100F500001200EF0BDF8D4F8240210B1C82D0FD234
:100F6000F4E7C82D38BF00250AD204E0681CC5B2DA
:100F700001200EF0ADF8D4F8240208B9F02DF5D315
:100F8000CC2000F0D5F8BE2000F0D2F800254FF0BC
:100F9000010800BFD9F8000020F44020C9F8000083
:100FA000D9F8000040F48020C9F80000C4F8A46219
:100FB00002200EF08DF8C4F8A4A2D9F8000020F4A5
:100FC0004020C9F80000D9F80000C9F800000C2042
:100FD0000EF07EF8D4F82402002814BF0127002761
:100FE00032200EF075F8F80140EA5500C5B208F15C
:100FF000010000F0FF08B8F1080FCBD900274FF02F
:10100000010800BFD9F8000020F44020C9F8000012
:10101000D9F8000040F48020C9F80000C4F8A462A8
:1010200002200EF055F8C4F8A4A2D9F8000020F46C
:101030004020C9F80000D9F80000C9F800000C20D1
:101040000EF046F8D4F82402002814BF4FF0010B2C
:101050004FF0000B32200EF03BF84FEACB1040EA85
:101060005700C7B208F1010000F0FF08B8F1080FFF
:10107000C8D9072F98BF012404D9F843C7B2E84361
:10108000C5B2002405EB072000B2FFF701FB9FED7E
:101090000A1B53EC112BFFF71AFAFFF717FB00B2EC
:1010A000002C04BF404200B2BDE8F09F00000000E9
:1010B0000004024000804042000000000000E43FC5
:1010C00070B5184886B00026016841F00201016041
:1010D0000068012500F0020005904FF40070CDE992
:1010E0000005114C029569462046039500F0ACFBC3
:1010F000206820F440202060206840F48020206098
:101100000A4CC4F8A46240F2EE2004F529740DF0F4
:10111000DFFF25600F200DF0DBFFFFF777FE06B045
:1011200070BD0000303802400004024000804042A0
:101130002DE9F04105461448016821F44021016081
:10114000016841F4802101600124104E0027A0466F
:1011500015F0010F4FEA5505C6F8A47206D002201B
:101160000DF0B6FFC6F8A4823C2005E03C200DF04F
:10117000AFFFC6F8A48202200DF0AAFF601CC4B223
:10118000082CE5D9BDE8F08100040240008040420F
:101190007047000030B4B3F5804F18BF6FF0704156
:1011A00005D000BF40F8221030BC0020704750F836
:1011B0002230DFF828C08D8903EA0C03D1E900C48E
:1011C0004CEA041C8C688969240244EA05444CEA10
:1011D000040C4CEA01011943E4E700000000F0CFE1
:1011E00070B40B6850F82320DFF84CC0D1E90356E7
:1011F00002EA0C0CD1E90142144335432C434D69FA
:101200002C438D692C43CD692C430D6A2C434D6AC8
:101210002C438D6A2C43CD6A2C43CD6B096B2C4338
:10122000214341EA0C01082A08BF41F0400140F87F
:10123000231070BC002070478000F0FF10B400EB5A
:1012400082004268D1E9003C43EA0C13D1F808C09F
:101250008C894FEA0C2C4CEA044C43EA0C03B1F89D
:1012600010C00A4C02F0404204EB0C5C43EA0C0351
:1012700091F814C0640104EB0C6C896943EA0C0317
:1012800019431143416010BC002070470000F0FF7B
:1012900010B54FF4C8710748FFF73CF8054829F02E
:1012A0006FF905A006F024F9BDE8104001490BA034
:1012B00006F01EB9A0050020C8CECEF1C3FB090977
:1012C000D4CBD0D0CAB1BCE409D4CBD0D0CBF9D5E3
:1012D000BCB0D9B7D6B1C80D0A00000025730D0AFD
:1012E0000000000030B40C4612F0070118BF0121C5
:1012F00001EBD20111FB02F190F800C04078CBB2B3
:10130000BCF1810F28BF402824D3FF2818BFBCF1AF
:10131000FF0F1FD07F2834BF40384138C1B2ACF135
:101320008100C0B2C0EB401C0CEB801001EB400010
:1013300058431C490C2A24D0102A2AD0182A1CBF32
:1013400030BC7047D1F819101A460144204630BC11
:1013500006F02EB9002B04BF30BC7047601E13F09E
:10136000010F4FF0000218BF00F8012F590804BF09
:1013700030BC7047427000F8022F491EFAD130BCD1
:101380007047D1F809101A460144204630BC06F0D7
:101390000FB9D1F811101A460144204630BC06F0AE
:1013A00007B90000602400202DE9F0410446876D54
:1013B00000F078FB054694F835000026022806D098
:1013C0008020606584F834600120BDE8F0812068E9
:1013D000016821F0160101602068416921F0800157
:1013E0004161206C002804BFA06C002804D0206854
:1013F000016821F0080101602068016821F0010105
:1014000001602068006810F0010F12D000F04AFB64
:10141000401B052808D92020606584F8346003202B
:1014200084F83500BDE8F0812068006810F0010FF5
:10143000ECD194F85C003F2101FA00F0B86084F828
:101440003460012084F835000020BDE8F08190F878
:101450003510022903D08021416501207047052104
:1014600080F835100068016821F00101016000205A
:10147000704700002DE9F8430446002700977348A1
:101480004FF41651A56D0068B0FBF1F92E6894F881
:101490005C00082101FA00F0304211D02068026897
:1014A00012F0040F0CD0026822F00402026094F8DB
:1014B0005C0001FA00F0A860606D40F0010060651A
:1014C00094F85C004FF0010808FA00F0304209D0AF
:1014D0002168496911F0800F04D0A860606D40F068
:1014E0000200606594F85C1004208840304209D006
:1014F0002168096811F0020F04D0A860606D40F007
:101500000400606594F85C1010208840304220D0C0
:101510002168096811F0080F1BD0A86020680168D5
:1015200011F4802F09D0006810F4002F02D0A16CB4
:1015300079B10CE0216C51B90BE0016811F4807FA6
:1015400003D1016821F008010160216C09B1204636
:10155000884794F85C102020884030424AD02168A7
:10156000096811F0100F45D0A86094F835000528DF
:101570002068016809D011F4802F2BD0006810F486
:10158000002F24D0E16B21B332E021F0160101607D
:101590002068416921F080014161206C002804BF6E
:1015A000A06C002804D02068016821F008010160C7
:1015B00094F85C004FF03F0101FA00F0A86084F855
:1015C000347084F83580216DD1BBBDE8F883616C3F
:1015D00071B90FE0016811F4807F07D1016821F033
:1015E0001001016084F8347084F83580E16B09B132
:1015F00020468847606D002808BFBDE8F883606D0D
:1016000010F0010F17D04FF0050084F83500206866
:10161000016821F001010160009800F101000090D3
:10162000484504D82068006810F0010FF4D184F810
:10163000347084F83580E16C002908BFBDE8F88378
:10164000204601B0BDE8F04308470000A800002094
:1016500070B5044600F026FA0546002C04BF0120B0
:1016600070BD002684F83460022084F835002068BC
:10167000016821F0010101602068006810F0010F8D
:1016800010D000BF00F00EFA401B052805D920201D
:101690006065032084F8350070BD2068006810F094
:1016A000010FEFD1216808683D4A1040D4E90123B9
:1016B0001A43D4E9033C43EA0C031A4363691A430F
:1016C000A3691A43E3691A43236A1A431043626AFF
:1016D000042A03D1D4E90B231A4310430860D4F839
:1016E00000C0DCF81400012320F00701606A40EA22
:1016F0000102042837D1A16AE06A0A4318B3A56938
:1017000055B1B5F5005F14D000291CBF012902298D
:1017100021D003291CD026E019B1012905D00229C6
:1017200021D110F0807F1ED015E0B0F1C07F1AD11A
:1017300011E081B1012907D002290CD0032908BF8B
:10174000B0F1C07F07D00EE010F0807F03D10AE037
:1017500010F0807F07D04FF04000606584F835308E
:101760004FF0010070BDCCF8142020680D4AC1B2C2
:10177000A1F11001A2FB01210B4A4FEA111103292B
:10178000525CE2656FF3090088BF001D3F21914064
:10179000A0658160666584F83530002070BD00006A
:1017A0003F8010F0ABAAAAAABCB3030870B490F8AB
:1017B0003450846D4FF0000C012D02BF022070BC2C
:1017C0007047012580F8345090F835600025012ECF
:1017D0001CBF80F834504FF0020C02D070BC604641
:1017E0007047022680F83560456505682E6826F446
:1017F00080262E6005686B608368402B036803BFFA
:101800009A600268D16099601CBF0168CA6090F854
:101810005C103F2202FA01F1A16001680A6842F0FF
:1018200016020A6001684A6942F080024A61016C4E
:1018300021B101680A6842F008020A600068016884
:1018400041F001010160C9E72DE9F84F0022884EFF
:10185000DFF820E201274FF0030A4FF00F0800BF26
:101860000B6807FA02F42340A34240F0FB80D1F852
:1018700004C0BCF1020F18BFBCF1120F15D14FEA22
:10188000D20C00EB8C0CDCF820504FEA42794FEA86
:10189000D96908FA09FB25EA0B05D1F810B00BFA53
:1018A00009F949EA0505CCF82050D0F800904FEA34
:1018B000420C91F804B00AFA0CF50BF0030B29EA7C
:1018C00005090BFA0CFB4BEA0909C0F80090D1F8A6
:1018D0000490B9F1010F18BFB9F1020F05D0B9F1A9
:1018E000110F18BFB9F1120F18D1D0F80890D1F824
:1018F0000CB029EA05090BFA0CFB4BEA0909C0F800
:101900000890D0F8049029EA040491F80490C9F3EF
:10191000001909FA02F949EA04044460C46824EA97
:1019200005048D6805FA0CFC4CEA040CC0F80CC0E8
:10193000D1F804C01CF0805F7ED0D6F800C04CF413
:10194000804CC6F800C0D6F800C00CF4804CCDF82E
:1019500000C022F0030C0CF1804505F59835D5F850
:1019600008C84FEA82744FEA147408FA04F92CEAA2
:10197000090CA0F18049B9F5003938D0A0F18049AF
:10198000B9F5013908BF4FF0010930D0A0F1804905
:10199000B9F5023908BF4FF0020928D0A0F18049FB
:1019A000B9F5033908BF4FF0030920D0A0F18049F1
:1019B000B9F5043908BF4FF0040918D0A0F18049E7
:1019C000B9F5053908BF4FF0050910D0A0F18049DD
:1019D000B9F5063908BF4FF0060908D0A0F18049D3
:1019E000B9F507390CBF4FF007094FF0080909FA9C
:1019F00004F444EA0C0CC5F808C8DEF800C04C68D2
:101A00002CEA030C14F4803F18BF4CEA030CCEF808
:101A100000C0194CD4F800C04D682CEA030C15F432
:101A2000003F18BF4CEA030CC4F800C0134CD4F8B4
:101A300000C02CEA030C00E014E04D6815F4801F90
:101A400018BF4CEA030CC4F800C00D4CD4F800C019
:101A50004D682CEA030C15F4001F18BF4CEA030C68
:101A6000C4F800C0521C102AFFF4FAAEBDE8F88F8B
:101A700044380240003C0140043C0140083C014025
:101A80000C3C01400069084018BF01207047002A43
:101A900008BF09048161704701480068000C704765
:101AA000002004E001488068704700004C030020DB
:101AB0000248816802781144816070474C0300201D
:101AC000094810B5016841F400710160016841F4F2
:101AD00080610160032000F06BF80F2000F006F831
:101AE00000F024F8002010BD003C024070B50D4D00
:101AF00004464FF47A712878B1FBF0F00A4909687E
:101B0000B1FBF0F001F0B2FA48B9102C07D2002274
:101B10002146501E00F01AF800206C6070BD0120B4
:101B200070BD00004C030020A80000207047002872
:101B3000B8BF704700F01F01012202FA01F140090D
:101B4000800000F1E020C0F800117047174B10B47E
:101B50001B68C3F30223C3F1070CBCF1040F88BF59
:101B60004FF0040C1C1D072C34BF0023DB1E012486
:101B700004FA0CFCACF1010C0CEA0101994004FAE6
:101B800003F35B1E1A40114300284FEA0111A1BF65
:101B900000F1E02080F8001410BC704700F00F0046
:101BA00000F1E02080F8141D10BC70470CED00E03F
:101BB000074900F007000A684FF6FF031A4042EA9F
:101BC000002040F0FD7040F0806008607047000029
:101BD0000CED00E0BFF34F8F05480168054A01F4A2
:101BE000E06111430160BFF34F8F00BFFDE70000CC
:101BF0000CED00E00400FA0501490120086270477D
:101C000000000E422DE9F843054600784FF0010828
:101C100010F0050F4FF000072FD0DFF83891C9F80A
:101C20006870FFF73FFF4C4C0646206810F0006FCD
:101C300009D000BFFFF736FF801B022865D8206857
:101C400010F0006FF6D16868297A800140EA0170CF
:101C500042490860C9F86880FFF724FF06462068FB
:101C600010F0006F09D100BFFFF71CFF801B022896
:101C70004BD8206810F0006FF6D0287810F0020FD3
:101C80005CD03748016841F0805101600068354CF4
:101C900000F080500090206840F480702060FFF7D2
:101CA00001FF0646206810F4807F08D1FFF7FAFE96
:101CB000801B022829D8206810F4807FF6D02A4C97
:101CC000206810F4407027D0A98901F44071814246
:101CD00022D0206820F440712448C0F800800760BA
:101CE0002160206810F0010F16D0FFF7DBFE0646DA
:101CF000206810F0020F08BF41F288370CD100BFF6
:101D0000FFF7D0FE801BB84202D90320BDE8F8835C
:101D1000206810F0020FF3D0E9684FF4407030EA09
:101D2000010213481CBF016821F4F81109D00160B9
:101D30002068A989C1F30B01084320600020BDE899
:101D4000F883026821F4407122F4F81221F0704106
:101D50001143ECE70000474200380240843802405B
:101D6000403802400070004070380240400E474248
:101D700008380240002804BF012070472DE9F047D1
:101D80004D4E04460F46306801F0FF0800F00F008A
:101D9000B84206D286F80080306800F00F00B842E2
:101DA00061D12068454D10F0020F14D010F0040FDF
:101DB00003D0286840F4E0502860207810F0080F25
:101DC00003D0286840F4604028602868A16820F0AB
:101DD000F00008432860207810F0010F37D06068C9
:101DE0003749012823D0022818BF0328096823D0C7
:101DF00011F0020F37D0296821F0030141EA0000F9
:101E00002860FFF74FFE81462868616800F00C00EB
:101E1000B0EB810F18BF41F2883A18D0FFF742FEAD
:101E2000A0EB090050450BD90320BDE8F0870968F5
:101E300011F4003FDFD116E011F0007FDBD112E09A
:101E40002868616800F00C00B0EB810FE6D13068C3
:101E500000F00F00B84209D986F80080306800F021
:101E60000F00B84202D00120BDE8F087207810F0C2
:101E7000040F05D02868E16820F4E050084328608A
:101E8000207810F0080F06D02868216920F46040FF
:101E900040EAC100286000F039F82968094AC1F316
:101EA0000311515CC840084908600F20FFF71EFE6F
:101EB0000020BDE8F0870000003C024008380240E6
:101EC00000380240B0BA0208A800002004480549C2
:101ED00000680968044AC1F38221515CC840704718
:101EE000A800002008380240C0BA0208044805498A
:101EF00000680968044AC1F34231515CC840704728
:101F0000A800002008380240C0BA0208184800683B
:101F100010F00C02174808BF70471749042A04BF85
:101F200008467047082A18BF704710B5134C22683E
:101F3000236802F03F0213F4800F08D020680023CA
:101F4000C0F38810A0FB0101FEF79AF907E02168B1
:101F50000023C1F38811A1FB0001FEF791F921686C
:101F6000C1F30141491C4900B0FBF1F010BD000074
:101F7000083802400024F40000127A0004380240BD
:101F8000002804BF012070472DE9F84F044600786F
:101F9000DA4D10F0010F59D0D948016801F00C0159
:101FA00004290AD0006800F00C0008280ED105F1C1
:101FB0000400006810F4800F08D0286810F4003F77
:101FC00044D06068002800F096813FE06068B0F57A
:101FD000803F19D0B0F5A02F28680CBF40F48020B6
:101FE00020F48030286028680CBF40F4803020F452
:101FF000802028606068B8B1FFF754FD0646286865
:1020000010F4003F05D021E0286840F480302860BB
:10201000F0E7FFF747FD801B642800F22A8128685B
:1020200010F4003FF5D011E0FFF73CFD06462868AC
:1020300010F4003F0AD000BFFFF734FD801B642876
:1020400000F21781286810F4003FF5D12078AD4FD9
:1020500010F0020F4FF0000847D0A948016811F0B6
:102060000C0F16D0006800F00C00082804D1A64818
:10207000006810F4800F0CD0E06820B34FF001002E
:102080003860FFF70FFD0646286810F0020F09D0F0
:1020900011E0286810F0020F1CBFE06801280AD088
:1020A00000F029B9FFF7FEFC801B02287ED82868C3
:1020B00010F0020FF6D02868216920F0F80040EAFD
:1020C000C100286011E0C7F80080FFF7EBFC06466E
:1020D000286810F0020F08D0FFF7E4FC801B0228EC
:1020E00064D8286810F0020FF6D1207810F0080F9D
:1020F0002AD08648864E616999B101210160FFF7B7
:10210000D1FC8146306810F0020F1DD1FFF7CAFCE8
:10211000A0EB0900022849D8306810F0020FF5D072
:1021200012E0C0F80080FFF7BDFC8146306810F077
:10213000020F09D0FFF7B6FCA0EB0900022835D842
:10214000306810F0020FF5D1207810F0040F77D02E
:1021500070484FF0000B006810F0805F0AD16D48A6
:10216000016841F08051016000684FF0010B00F000
:1021700080500090684E306810F4807F14D1306831
:1021800040F480703060FFF78DFC8146306810F4B9
:10219000807F09D1FFF786FCA0EB0900022868D8F0
:1021A000306810F4807FF5D05C4E00E061E0A068FC
:1021B00001281BD0052830680CBF40F0040020F037
:1021C0000100306030680CBF40F0010020F00400D6
:1021D000C6F80000A06841F2883AB8B1FFF762FC87
:1021E0008146306810F0020F05D021E0306840F0E1
:1021F00001003060EEE7FFF755FCA0EB0900504509
:1022000037D8306810F0020FF5D011E0FFF74AFC24
:102210008146306810F0020F0AD000BFFFF742FC81
:10222000A0EB0900504524D8306810F0020FF5D11A
:10223000BBF1000F04D03748016821F080510160E4
:10224000A069E8B32E49096801F00C01082952D0B1
:102250000228C7F860800FD0FFF724FC04462868E6
:1022600010F0007F44D000BFFFF71CFC001B0228C9
:102270003AD90320BDE8F88FFFF714FC064628681A
:1022800010F0007F09D000BFFFF70CFC801B022874
:10229000EFD8286810F0007FF6D1D4E90701084391
:1022A000A16A1F4A490802EB0141626A41EA8211B0
:1022B000084394F82C1040EA01611348016000E0E3
:1022C00016E001203866FFF7EDFB0446286810F0A1
:1022D000007F0DD1FFF7E6FB001B0228C9D8286854
:1022E00010F0007FF6D003E0286810F0007FBBD12B
:1022F0000020BDE8F88F0120BDE8F88F00380240CB
:10230000083802400000474204380240800E47422D
:10231000743802404038024000700040703802407B
:102320000000FFFF2DE9F041044600790227012853
:102330000CD00126267160794FF0000801281CBFDF
:102340000420A06005D000BF84F804800020BDE810
:10235000F0816771FFF7A6FB05462068406810F022
:10236000010F0CD1FFF79EFB401B022802D96671BA
:10237000A760E9E72068406810F0010FF2D02068FC
:102380008068E060667184F80480BDE8F081002810
:1023900004BF0120704770B504464079002518B984
:1023A0002571204600F00CF8022060712068016859
:1023B00041F00401016001206071A560002070BD42
:1023C000054881B0016841F040010160006800F0FB
:1023D0004000009001B070473438024070470068F8
:1023E000503050F8210070470068503040F82120EC
:1023F0007047704710B504460068C16811F4806FDB
:102400001CBF806810F4804F09D02046FFF7F1FF11
:102410002068C16801F0800161F49061C1600349E6
:102420004FF4800008600120607710BD143C01402B
:1024300001A005F0E7B80000414C41524D20412178
:102440000D0A000010B504460068C16811F4807FD1
:102450001CBF806810F4805F09D02046FFF7E8FFBA
:102460002068C16801F0800161F4C071C16020681A
:10247000C16811F4007F1CBF806810F4005F09D0B0
:102480002046FFF7ABFF2068C16801F0800161F4CE
:102490002071C16003494FF400300860012060776B
:1024A00010BD0000143C014010B40068406820F0EA
:1024B000C00424F07F444FEA144CC4F3042381F891
:1024C00003C004F03F004B708870C4F342340C70BA
:1024D000C2B94FEA1C1202EB82020CF00F0C0CEB9B
:1024E0004202CA701A0902EB820203F00F0303EBE7
:1024F00042024A70020902EB820200F00F0000EB78
:102500004200887010BC00207047000030B403689F
:102510009B6A4B6003681B69C3F30E038B60006802
:102520000068174B402500EA0304C4F3054CC4F3CC
:10253000062381F800C004F07F004B70887005EA24
:102540001444CC70C2B94FEA1C1202EB82020CF0A8
:102550000F0C0CEB42020A701A0902EB820203F024
:102560000F0303EB42024A70020902EB820200F001
:102570000F0000EB4200887030BC00207047000064
:102580007F7F7F00002804BF012070472DE9F041C4
:10259000417F0446002019B92077204600F078F8E2
:1025A000022060772168CA2048622168532048626F
:1025B0002068C1684FF0FF0611F0400F4FF004078C
:1025C00015D1791FC160FFF76DFA05462068C06814
:1025D00010F0400F0BD100BFFFF764FA401BB0F5BD
:1025E0007A7F39D82068C06810F0400FF4D0206896
:1025F000816821F0400121F4E00181602068816858
:1026000062681143D4E904231A43114381602168AD
:10261000E068086120680169228941EA024101619C
:102620002068C16821F08001C1602068816811F0D4
:10263000200F1CD1C16821F0A001C160FFF732FA60
:1026400005462068C06810F0200F10D1FFF72AFA65
:10265000401BB0F57A7F05D9206846626777012074
:10266000BDE8F0812068C06810F0200FEED020682F
:10267000016C21F4802101642068016CA26911437E
:10268000016420684662012060770020BDE8F08187
:1026900010B5114892B00024016841F080510160EA
:1026A000006800F080501090FFF7A6FA042006940E
:1026B0000090012468460294FFF762FC02200C900F
:1026C000C0010F900CA8FFF79DFA0CA8FFF79AFA2B
:1026D0000248046012B010BD403802403C0E474230
:1026E0002DE9F0470446007F0D46012804BF022073
:1026F000BDE8F0874FF0010984F81C900220607754
:10270000E2B1A878E9782A7840EA014069780902BC
:1027100041EA423140EA01072168CA204862216843
:10272000532048622068C1684FF0FF0811F0400F45
:102730004FF0040A4FF000062FD118E0687810F02F
:10274000100F03D000F0EF000A306870E87803F053
:1027500097F80604687803F093F846EA0026A8780C
:1027600003F08EF82978304340EA4137D4E74FF040
:10277000FF31C160FFF796F905462068C06810F088
:10278000400F0AD1FFF78EF9401BB0F57A7F25D8AC
:102790002068C06810F0400FF4D0216827F0C00016
:1027A00048602068C16821F08001C16020688168AC
:1027B00011F0200F20D1C16821F0A001C160FFF706
:1027C00071F905462068C06810F0200F14D100BFD1
:1027D000FFF768F9401BB0F57A7F08D92068C0F888
:1027E000248084F81DA026770120BDE8F0872068AA
:1027F000C06810F0200FEBD02068C0F8248084F867
:102800001D9026770020BDE8F08700002DE9F05FDD
:102810000446007F0D46012804BF0220BDE8F09F5A
:102820004FF0010A84F81CA002206077206800267F
:10283000806800F0400072B1002808BFEE70A878F0
:102840002978EA7840EA01406978090241EA0241C0
:1028500040EA010812E0002808BFEE70287803F073
:102860000FF80704687803F00BF847EA0027A87808
:1028700003F006F8E978384340EA01482168CA20A5
:1028800048622168532048622068C1684FF0FF0900
:1028900011F0400F4FF0040B15D14FF0FF31C16024
:1028A000FFF700F907462068C06810F0400F0AD112
:1028B000FFF7F8F8C01BB0F57A7F31D82068C06800
:1028C00010F0400FF4D02248216808EA00000860A8
:1028D0002068816821F480218160D5E903010143EA
:1028E00020688268114381602068C16821F08001FE
:1028F000C1602068816811F0200F1FD1C16821F0EC
:10290000A001C160FFF7CEF805462068C06810F04E
:10291000200F13D1FFF7C6F8401BB0F57A7F08D916
:102920002068C0F8249084F81DB026770120BDE807
:10293000F09F2068C06810F0200FEBD02068C0F82E
:10294000249084F81DA026770020BDE8F09F0000A9
:102950007F7F7F007047704770B50446B0F8500025
:1029600000250104206803F057F818B1A16B084353
:10297000A06304E00021206803F038F80546C5F3A1
:10298000432070BD70B504460068416B4FF00105EF
:1029900011F4807F58D0290281632068C16B21F433
:1029A0009D7121F40071C163206B10F0080F206B42
:1029B00025D010F0020F04BF206B10F0200F09D0BB
:1029C000206803F037F828B1A16B0843A0632046C4
:1029D000FFF7C1FF216840F2FF50886384F834504C
:1029E000206B10F0010F04BF206B10F0020F204687
:1029F00002D000F0FDF870BD00F0FBF870BD10F0E3
:102A0000800F08BF70BD206B10F0200F09D0206828
:102A100003F010F828B1A16B0843A0632046FFF72C
:102A20009AFF206B10F0010F06BF206B10F0020F11
:102A300070BD2068C16A21F00801C16284F8345079
:102A4000204600F0D6F870BD416B11F4804F11D0D4
:102A50004FF480418163D4F82060002506EB8501A6
:102A6000206802F0D4FF6D1C082DF7D3206A2030B7
:102A7000206270BD416B11F4004F10D04FF4004143
:102A80008163A66A0025206802F0BEFF46F8250093
:102A90006D1C082DF7D3A06A2030A06270BD416B79
:102AA00040F23A22114208BF70BD416B11F0020F93
:102AB00003D0A16B41F00201A163416B11F0080F3B
:102AC00003D0A16B41F00801A163416B11F0200F0D
:102AD00003D0A16B41F02001A163416B11F0100FF5
:102AE00003D0A16B41F01001A163416B11F4007F91
:102AF00003D0A16B41F00801A16340F2FF71816333
:102B00002068C16B21F49D7121F40071C163206BB9
:102B100010F0800F5DD0206C002658B3324901655B
:102B2000206CFEF794FC002808BF70BD206C846BFD
:102B3000206C002818BF2664E06B002818BF70BD09
:102B40002046FFF709FFA66384F8345006281CBF0F
:102B5000052870BD206802F06DFFA16B0843A063DB
:102B6000A06B18B12046FFF7F5FE70BD2046FFF7B9
:102B7000F2FE70BDE06B28B31C490165E06BFEF707
:102B800066FC002808BF70BDE06B846BE06B00281A
:102B900018BFE663206C002818BF70BD2046FFF701
:102BA000DBFEA66384F8345006281CBF052870BDE0
:102BB000206802F03FFFA16B0843A063A06B0028D0
:102BC000D4D0CFE7A66384F834502046FFF7C2FE86
:102BD00070BD206B10F0080F08BF70BD84F8345032
:102BE0002046FFF7B8FE70BD155C0008C95B000801
:102BF00070477047002804BF0120704770B5044635
:102C000090F85100002520B984F85050204600F07B
:102C100037F8022084F851002068016821F0400153
:102C20000160D4E901010843D4E9031211430843C8
:102C300061690843218B01F400710843E16908438D
:102C4000216A0843A16A084321680860A069042139
:102C500001EA1040616A084321684860A06AB0F543
:102C6000005F02D12168E06A08612068C16921F42F
:102C70000061C1616565012084F85100002070BDCC
:102C8000114800B5016887B041F002010160006899
:102C900000F0020005900D48016841F48051016088
:102CA0000068012100F48050059038200090022037
:102CB000CDE9010103900520049069460448FEF720
:102CC000C3FD07B000BD0000303802404438024068
:102CD000000402402DE9F84F044690F85000002609
:102CE0000A9F1D4692468B464FF00108012804BFFB
:102CF0000220BDE8F88F012084F85000FEF7D2FED4
:102D0000814694F851006168012808D0B1F5827FAE
:102D100003BFA16800290428022640F02A81BBF1E4
:102D2000000F1ABFBAF1000F002D012600F021811B
:102D300094F8510004281CBF052084F8510000209D
:102D40006065C4F838A0E587A587C4F830B0E5868B
:102D5000A58620646064A06AB0F5005F09D1206890
:102D6000016821F4005101602068016841F40051BC
:102D700001602068016811F0400F03D1016841F043
:102D800040010160E068B0F5006F606805D0002880
:102D900018BF012D77D000F0C5B8002818BF012D4D
:102DA0004ED1206B21680088C860206B00F10200C2
:102DB0002063E08EA0F10100E08641E02068816898
:102DC00011F0020F1CBFE18E00291BD0B8F1010FDA
:102DD00018D1216B0988C160206B00F102002063CB
:102DE000E08EA0F10100E086E08E4FF000080028A0
:102DF00004BFA06AB0F5005F04D12068016841F407
:102E0000805101602068816811F0010F1CBFE18FC3
:102E100000290CD0C068A16B0880A06B00F10200F3
:102E2000A063E08FA0F10100E0874FF00108FEF7FA
:102E300039FEA0EB0900B84202D3B7F1FF3F79D1C8
:102E4000E08E002804BFE08F0028B7D1A06AB0F55B
:102E5000005F72D02068816811F0100F07D0616D9B
:102E600041F0020161654FF6EF71816001264A462B
:102E70003946204602F0F4FE002874D001262020B6
:102E8000606576E0FFE7206B216800780873206BAF
:102E9000401C2063E08E401EE08643E0206881688D
:102EA00011F0020F1CBFE18E00291BD0B8F1010FF9
:102EB00018D1216B09780173206B00F101002063A8
:102EC000E08EA0F10100E086E08E4FF000080028BF
:102ED00004BFA06AB0F5005F04D12068016841F426
:102EE000805101602068816811F0010F1CBFE18FE3
:102EF00000290CD0C068A16B0870A06B00F1010024
:102F0000A063E08FA0F10100E0874FF00108FEF719
:102F1000C9FDA0EB0900B84203D3B7F1FF3F01D0D0
:102F200008E03FB1E08E002804BFE08F0028B5D153
:102F30008CE702E04FF003061BE04FF001023B4636
:102F400011462046CDF8009002F016FF002804BF7D
:102F50002068C0683FF47EAF606D40F0020060659D
:102F6000032606E0FFE7A06818B92068C1688068FA
:102F70000090012084F85100002084F85000304671
:102F8000BDE8F88F002804BF0120704770B50446E3
:102F900090F8490015460E4628B9002084F84800EC
:102FA000204600F01BF804F108012068FEF718F92C
:102FB0003146A2682068FEF741F9D4E901022946AA
:102FC000236BFEF7E7F8A168206850F8212042F053
:102FD000010240F82120002070BD0000194800B512
:102FE000016887B041F001010160006800F0010054
:102FF00005901548016841F008010160016801F081
:1030000008010591016841F01001016000686946FE
:1030100000F0100005904EF2B37000900220019075
:1030200001200290032003900C2004900748FEF733
:103030000BFC4FF68070009069460548FEF704FCD3
:1030400007B000BD3838024030380240000C024062
:10305000001002404FF0E021042808690CBF40F046
:10306000040020F00400086170470000411EB1F127
:10307000807F24BF012070474FF0E0204161054A66
:10308000F02182F8141D00218161072101610020D7
:10309000704700000FE000E070477047002804BF51
:1030A0000120704710B5044690F83D0028B9002073
:1030B00084F83C00204600F00DF8022084F83D0022
:1030C000211D206803F0F6F8012084F83D0000205F
:1030D00010BD000008B501681648A1F18042B2F5A4
:1030E000A05215D0B1F1804F18BF08BD016841F062
:1030F000010101600068002200F00100009005213C
:103100001C20FEF723FDBDE808401C20FEF70FBD84
:10311000016841F0200101600068002200F02000F9
:10312000009001213720FEF711FDBDE8084037204F
:10313000FEF7FDBC403802400168CA6842F0010257
:10314000CA600068816801F00701062903D00168A0
:1031500041F00101016000207047704770B50446DE
:10316000006801694FF0000511F0020F1CBFC16833
:1031700011F0020F13D06FF00201016101202077DE
:103180002068806910F0030F204602D0FFF7E5FFAA
:1031900004E000F099F8204600F02EFA2577206828
:1031A000016911F0040F1CBFC16811F0040F13D0A6
:1031B0006FF004010161022020772068806910F41B
:1031C000407F204602D0FFF7C8FF04E000F07CF803
:1031D000204600F011FA25772068016911F0080FE8
:1031E0001CBFC16811F0080F13D06FF00801016116
:1031F000042020772068C06910F0030F204602D019
:10320000FFF7ABFF04E000F05FF8204600F0F4F9B0
:1032100025772068016911F0100F1CBFC16811F0FB
:10322000100F13D06FF01001016108202077206883
:10323000C06910F4407F204602D0FFF78EFF04E003
:1032400000F042F8204600F0D7F9257720680169A0
:1032500011F0010F1CBFC16811F0010F05D06FF014
:1032600001010161204600F0EFF92068016911F0C9
:10327000800F1CBFC16811F0800F05D06FF0800176
:1032800001612046FFF708FF2068016911F0400F37
:103290001CBFC16811F0400F05D06FF04001016103
:1032A000204600F0F5F92068016911F0200F1ABFDF
:1032B000C16811F0200F70BD6FF020010161204640
:1032C000BDE87040FFF7E9BE7047000090F83C3061
:1032D000012B04BF022070472DE9F001012480F882
:1032E0003C40022380F83D308A4BDFF82CC242B1CB
:1032F000042A49D0082A7DD00C2A00F0CE8000F0A4
:10330000FFB80268156A25F001051562156A56684E
:103310009769D1F8008027F0730748EA0707D1F8CA
:10332000088025F0020548EA05059A4218BF624563
:1033300007D1D1F80C8025F0080548EA050525F0ED
:1033400004059A4218BF624509D1D1F814C026F489
:1033500040734CEA0303D1F818C04CEA03065660E8
:1033600097614B68536315620268936943F00803E1
:1033700093610268936923F004039361026893697F
:10338000096943EA010143E00268156A25F0100566
:103390001562156A56689769D1F8008027F4E647E8
:1033A00047EA0827D1F8088025F0200545EA0815E6
:1033B0009A4218BF624507D1D1F80C8025F08005EC
:1033C00045EA081525F040059A4218BF624509D123
:1033D000D1F814C026F4406343EA8C03D1F818C036
:1033E00043EA8C06566097614B68936315620268E6
:1033F000936900E00EE043F400639361026893690F
:1034000023F48063936102689369096943EA0121A7
:10341000916175E00268156A25F480751562166A77
:103420005568D769D1F8008027F0730748EA070785
:10343000D1F8088026F4007646EA08269A4218BF9A
:10344000624507D1D1F80C8026F4006646EA0826CA
:1034500026F480669A4218BF624509D1D1F814C09B
:1034600025F4405343EA0C13D1F818C043EA0C1575
:103470005560D7614B68D36316620268D36943F025
:103480000803D3610268D36923F00403D36102689F
:10349000D369096943EA010131E00268156A25F43C
:1034A00080551562176A5568D669D1F8008026F4F0
:1034B000E64646EA0826D1F8088027F4005747EA8E
:1034C00008379A4218BF624505D1D1F814C025F4D7
:1034D000804343EA8C155560D6614B6813641762CC
:1034E0000268D36943F40063D3610268D36923F4AB
:1034F0008063D3610268D369096943EA0121D1611C
:1035000080F83D404FF0000180F83C10BDE8F0012C
:10351000084670470000014000040140002804BF35
:103520000120704710B5044690F83D0028B90020EE
:1035300084F83C00204600F00DF8022084F83D009D
:10354000211D206802F0B6FE012084F83D00002015
:1035500010BD000030B5234D234B24490222244CDA
:1035600087B04FF0010CA8421BD1186840F0020050
:103570001860186800F002000590086840F001002B
:1035800008600868CDE902C200F0010005908020C3
:10359000CDE90002694620460492FEF755F907B0CE
:1035A00030BD144DA8421CBF07B030BD186840F0B4
:1035B00008001860186800F008000590086840F0DE
:1035C000010008600868CDE902C200F00100059022
:1035D0000E20CDE90002694620460492FEF734F938
:1035E00007B030BD8C09002040380240303802401E
:1035F00000000240CC090020704701F01F03026860
:1036000001219940136A8B431362136A19431162B3
:103610000168A1F18042B2F580321CBFA1F1804265
:10362000B2F5823203D14A6C42F400424A64006827
:10363000816801F00701062903D0016841F001010A
:1036400001600020704700006022EFF3118182F3D7
:103650001188BFF34F8FBFF36F8F094A904204D197
:1036600008480278521C027006E0074A904203D1D3
:1036700006480268521C026081F3118870470000FE
:103680004C090020F40000200C0A0020F00000206B
:10369000704770B504460068416994F83920C1F359
:1036A000C0112025212A10D179B1416921F0800172
:1036B0004161206B002818BFFDF776FE2068C168C5
:1036C00021F0C001C16084F839502068416994F844
:1036D0003A20C1F38011222A15D1A1B1416921F00C
:1036E00040014161606B002818BFFDF75DFE206856
:1036F000C16821F49071C1602068416921F0010125
:10370000416184F83A50002070BD704770B501687F
:1037100004460868CA684B6910F00F0F4FF0200587
:1037200045D003F0010C02F490765CEA060C00F040
:10373000FF8010F0010F18BF12F4807F05D0D4F87D
:103740003CC04CF0010CC4F83CC010F0040F18BF92
:1037500013F0010F05D0D4F83CC04CF0020CC4F8B3
:103760003CC010F0020F18BF13F0010F05D0D4F8C1
:103770003CC04CF0040CC4F83CC010F0080F18BF5B
:1037800013F0010F03D0E36B43F00803E363E36B33
:10379000002B08BF70BD10F0200F18BF12F0200FD3
:1037A00073D094F83A202046222A4BD088E010F0BB
:1037B000200F18BF12F0200F00F0BA8094F83A20C2
:1037C0002046222A18BF70BD8268B2F5805F23D0E0
:1037D000026982B3496801F07F02816A4B1C8362EF
:1037E0000A70C18D491E0904090CC18518BF70BD3E
:1037F0000168CA6822F02002CA600168CA6822F41F
:103800008072CA6001684A6922F001024A6180F848
:103810003A5000F013FA70BD0369826A4968002BC0
:1038200014BFC9B2C1F308011180816A14BF491CD9
:10383000891C8162D5E7FFE74A68816A4B1C836275
:103840000A70CEE78268B2F5805F0FD00269EAB1F4
:10385000496801F07F02816A4B1C83620A70C18D46
:10386000491E0904090CC1852AD116E00369826A40
:103870004968002B14BFC9B2C1F308011180816AE5
:1038800014BF491C891C8162E9E719E04A68816A12
:1038900001F1010383620A70E1E70168CA6822F05E
:1038A0002002CA600168CA6822F48072CA60016896
:1038B0004A6922F001024A6180F83A5000F0BEF9EC
:1038C00020684169E26BC1F3801112F0080F08BF54
:1038D000002926D0C16821F49071C1602068416937
:1038E00021F00101416184F83A502068416911F0EA
:1038F000400F12D0416921F040014161606B60B11D
:103900002D490165606BFDF7A2FD002808BF70BD61
:10391000606B016DBDE8704008472046FFF7F5FE7B
:1039200070BD2046FFF7F1FE0020E06370BD00BFD0
:1039300010F0800F18BF12F0800F2CD094F83900CF
:10394000212818BF70BDA068B0F5805F206A16D02E
:10395000411C2162216800784860E08C401E000410
:10396000000CE08418BF70BD2068C16821F08001A0
:10397000C1602068C16841F04001C16070BD00882D
:10398000C0F30800486020690028206A14BF401C6A
:10399000801C2062E1E710F0400F14BF12F0400FCE
:1039A00070BD2046CA6822F04002CA6084F83950CF
:1039B00000F088F970BD000031700008002804BFD5
:1039C0000120704770B5044690F83900002520B9F1
:1039D00084F83850204600F023F8242084F8390079
:1039E0002068C16821F40051C160204603F0A0FBAB
:1039F0002068016921F4904101612068416921F04A
:103A00002A0141612068C16841F40051C160E56349
:103A1000202084F8390084F83A00002070BD0000AE
:103A20002DE9F0478246D0F800C054480221002416
:103A3000012207238E060715ACF1804586B04FF0B2
:103A400040094FF44038B5F588355CD0ACF180457D
:103A5000B5F590451CBF06B0BDE8F087D0F800C0B2
:103A60004CF0020CC0F800C0006800F002000590A5
:103A70004348D0F800C04CF4802CC0F800C0006867
:103A8000049300F4802005904FF44060CDE90001DC
:103A90000320CDE9022069463A48FDF7D5FE3B4DAB
:103AA00039482860C5E90164C5E903476C61AC6128
:103AB000C5E9074828466C62FDF7CAFDA5F5807A7E
:103AC0003348CAF83450C5F838A06035C5F80890B6
:103AD000C5E903476C61AC61C5E907486C62C5E99B
:103AE00000062846FDF7B4FDCAF830500022022136
:103AF0002720C5F838A0FEF729F82720FEF717F889
:103B000006B0BDE8F087D0F800C04CF0010CC0F85A
:103B100000C0006800F0010005901E48D0F800C009
:103B20004CF0100CC0F800C00068029400F01000C7
:103B300005904FF4C060CDE9000169461648CDE913
:103B40000323FDF781FE164D1448C5F80890C5E91A
:103B500003476C61AC61C5E907486C62C5E90006C2
:103B60002846FDF775FDCAF83050002206212520B1
:103B7000C5F838A0FDF7EAFF2520BFE7303802403E
:103B800040380240000402402860024050B3012047
:103B9000586002404438024000000240B8640240CD
:103BA000F0B2012038B5044690F83A0020283DD103
:103BB000002912BF002A012038BD94F838000128DE
:103BC00034D0012084F83800A162A2850025E56385
:103BD000222084F83A00636B1548D863636B15485C
:103BE0001864636B1448D864606B13460565084617
:103BF000D4F834C0216802466046091DFDF7D6FDA1
:103C0000206801684168009184F83850C16841F427
:103C10008071C1602068416941F001014161206803
:103C2000416941F040014161002038BD022038BDAA
:103C3000AF700008ED7000084170000870477047D1
:103C400070B5044690F83900202833D1002912BFFE
:103C5000002A012070BD94F8380001282AD00120E4
:103C600084F838002162A284E2840025E5632120E3
:103C700084F83900236B1048D863236B0F4818640D
:103C8000236B0F48D864206B13460565206800F14C
:103C9000040C6246206BFDF789FD21686FF040003F
:103CA000086084F838502068416941F08001416122
:103CB000002070BD022070BDF77000082771000859
:103CC0004170000870477047FEE7000000000000E8
:103CD0002DE9F05F2DED048B9FED298A26F0C2FAC5
:103CE0000126294CDFF89CB0DFF8A0909FED289BBF
:103CF000B2464FF0000827020025C4F890A2142015
:103D00000BF0E6F9C4F89082D4F8140218B92846EA
:103D10006D1C4845F8D90020C7F824808BF8008036
:103D2000396841F001013960D4F81412012903D136
:103D30000146401C4945F7D9386820F00100386039
:103D4000786AC7F82480FCF7B4FC53EC192BFCF715
:103D500030FCFCF737FD00EE100A761C062E38EE1C
:103D6000008AC9D1B1EE040AC8EE008A26F09AFA98
:103D7000B0EE680ABDEC048BBDE8F09F00000000C7
:103D800000000000F40000200000404280841E007B
:103D90006666666666264D4030B5174887B00024D3
:103DA000016841F0010101600068144D00F001005C
:103DB0000590102000900120019002900390694628
:103DC0002846FDF741FD002210212846FDF75FFE41
:103DD0002020CDE9000469462846FDF735FD002284
:103DE00020212846FDF753FE532146F2A71002F08A
:103DF000C7F907B030BD0000303802400000024073
:103E00000E4810B5016886B041F0020101600068FB
:103E1000012400F002000590C020CDE9000402203A
:103E2000CDE9024069460648FDF70EFD0548C0F899
:103E30009C42C0F8984206B010BD000030380240E5
:103E400000040240008040422DE9F047DFF8AC90CA
:103E500082460024D9F8000020F44040C9F8000050
:103E6000D9F80000C9F80000254E254627464FF036
:103E7000010800BFC6F8987202200BF029F9C6F8B5
:103E800098826006040ED6F81C0200281CBF601C35
:103E9000C4B201200BF01CF9681CC5B2082DE9D38F
:103EA000BAF1000FC6F89872D9F8000020F440402B
:103EB000C9F80000D9F8000040F48040C9F80000BB
:103EC0000ED0C6F89C7202200BF002F9C6F8988258
:103ED00002200BF0FDF8C6F898722046BDE8F08786
:103EE000C6F89C8202200BF0F3F8C6F898820220F4
:103EF0000BF0EEF8C6F89872EFE7000000040240FD
:103F0000008040422DE9F04106461448016821F442
:103F100040410160016841F480410160104C4FF064
:103F20000008C4F8988245460127F009C4F89C02AD
:103F30007006060E02200BF0CBF8C4F8987202202F
:103F40000BF0C6F8C4F8988202200BF0C1F8681C88
:103F5000C5B2082DE9D3BDE8F0810000000402409D
:103F60000080404270B50D48016821F44041016075
:103F7000016841F480410160094C0120C4F89C02B1
:103F8000C4F89802042004F526740BF0A1F800256B
:103F9000656004200BF09CF8256070BD00040240B1
:103FA000008040420E4810B5016821F44041016094
:103FB000016841F4804101600A4C0020C4F8980275
:103FC000C4F89C02042004F526740BF081F801204B
:103FD00020606060BDE8104004200BF079B800005C
:103FE00000040240008040422DE9F0411E4E0024B2
:103FF000306820F440403060306830601B4D01274D
:10400000C5F89C7238460BF063F8C5F89872012029
:104010000BF05EF8D5F81C02002100B3601CC4B29E
:10402000FA2C18D9306820F440403060306840F4F1
:1040300080403060C5F89812C5F89C1204200BF03F
:1040400047F8C5F89872C5F89C7204200BF040F848
:104050000120BDE8F081D5F81C020028DED1C5F8AA
:1040600098120020BDE8F081000402400080404228
:1040700030B583B001F09EFB4FF4E13025F0BAFC7F
:104080004FF4165025F0E4FF5321FF2002F0B2F860
:1040900001F00EFC01F066FB00F07AFB00F0C8F8BE
:1040A000FFF7AEFEFCF77EFD03F03EFA0DF01AFCC2
:1040B00002F0ECFD002022F041F80021012001F087
:1040C000AFFE0021022001F0ABFE0021032001F031
:1040D000A7FE23F0C5FAFFF75FFE01F065FC25F0AF
:1040E000DBFF10F0EFFB11F06DFE39A022F07AF843
:1040F0001AF03EFA1EF0E0F91EF004FA394823F0F7
:1041000085FF002000F0C2F83748002437490460DA
:1041100049F2FF700860FCF7F2FC1025B0B134A042
:10412000CDE900501023C82246211E2001F084FA58
:104130004FF47A700AF09CFF5623E62246211E2097
:10414000009400F0A9FAC8200AF092FFFCF7B8FF2B
:10415000B0B12BA0CDE900501023C82246211E206B
:1041600001F06AFA4FF47A700AF082FF5623E622D1
:1041700046211E20009400F08FFAC8200AF078FF34
:1041800001F058FBF8B122A0CDE900501023C8225D
:1041900082211E2001F050FA4FF47A700AF068FF75
:1041A0001FA0CDE900501023C82282211E2001F05B
:1041B00043FA5623E62246211E20009400F06CFAB2
:1041C000C8200AF055FF03B0BDE8304023F0FEBF21
:1041D0004D435520496E697420537563636573734D
:1041E000200D0A006C030020B0000020B400002065
:1041F00041543234433032204661696C6564210099
:1042000044533138423230204572726F72210000BF
:104210002020524E47204572726F7221200000000C
:10422000524E4720547279696E672E2E2E00000080
:1042300070B5134886B00024016841F001010160A7
:10424000016801F001010591016841F01001016070
:104250000068012500F0100000950590032602205B
:104260000396CDE9014069460648FDF7EDFA1C20AA
:104270008DE8710069460448FDF7E6FA06B070BDA6
:1042800030380240000002400010024070B50F4D6F
:1042900006462888698801FB00F40021084600F0E2
:1042A000F7FF0B4928890880002C08BF70BD14F067
:1042B0000101084AB0B218BF1080A14228BF70BDEA
:1042C00010801080891CA142FAD370BD3C090020E7
:1042D000FEFF0760000008602DE9F84F121A521C1B
:1042E0005B1A5B1C1D04DDF828C092B22D0C4FF048
:1042F000000308BFBDE8F88F354C4FEA102E00F0E0
:10430000FF0AB4F80A90B4F80C8027893148CC1819
:10431000A6B2ADF80090BDF80040ADF80040BDF881
:1043200000B02D4CA4F800B0ADF800E0BDF800B02E
:10433000ADF800B0BDF800B0A0F800B0ADF800A036
:10434000BDF800B0ADF800B0BDF800B0A0F800B006
:10435000ADF80080BDF800B0ADF800B0BDF800B019
:10436000A4F800B04FEA162BADF800B0BDF800B0CD
:10437000ADF800B0BDF800B0A0F800B0F6B2ADF8EE
:104380000060BDF80060ADF80060BDF80060068018
:104390002780BAB112F0010404D003FB02F63CF806
:1043A0001660068094420DD203FB02463CF816B01C
:1043B000A0F800B00CEB460676880680A41CA4B2D8
:1043C0009442F1D35B1C9BB2AB42A0D3BDE8F88F03
:1043D0003C09002000000860FEFF07602DE9F04F57
:1043E0004FF0000A161A5D1A83B0D14680460F4678
:1043F000002EC8BF012006DC0FBF00204FF0FF30A9
:104400000190764200D10190002DC8BF012006DC4A
:104410000FBF00204FF0FF3000906D4200D10090A0
:10442000AE42CCBF34462C464FF0000B601C52BF4E
:10443000029003B0BDE8F08F1FFA88F0B9B200F027
:1044400027FF104801891048018010481049008852
:104450000880B244A944A24503DD0198AAEB040AEE
:104460008044A14503DD0098A9EB040907440BF142
:1044700001001FFA80FB02988345DDDD03B0BDE833
:10448000F08F00003C090020FEFF0760B000002014
:104490000000086000B500F0FBFE044804490089F4
:1044A00008800448891C0088088000BD3C09002061
:1044B000FEFF0760B00000202DE9F04F8346002585
:1044C00086B014004FF00300A0EB44008A46009031
:1044D00044BF06B0BDE8F08F454E464FDFF8188167
:1044E00007F102090BEB0500AAEB0401019004910E
:1044F00080B289B200F0CCFE30893880B8F8000074
:10450000A9F800000BEB0400AAEB0501029003914F
:1045100080B289B200F0BCFE30893880B8F8000063
:10452000A9F8000002980AEB0501029180B289B255
:1045300000F0AEFE30893880B8F80000A9F800001D
:1045400001980AEB0401059180B289B200F0A0FE47
:1045500030893880B8F80000A9F80000ABEB0500FE
:104560000599019080B289B200F092FE30893880BE
:10457000B8F80000A9F80000ABEB04000299059020
:1045800080B289B200F084FE30893880B8F800002B
:10459000A9F800000198049980B289B200F078FE71
:1045A00030893880B8F80000A9F800000598039910
:1045B00080B289B200F06CFE30893880B8F8000013
:1045C000A9F8000000986D1C002804DA00EB8500B3
:1045D000801D009005E0291B00EB81000A30641E5D
:1045E0000090A5427FF77EAF06B0BDE8F08F0000D7
:1045F0003C090020FEFF0760B000002038B4DFF85F
:1046000090C0BCF80A30ADF80030BDF80030ADF80D
:104610000030BDF800301F4C2380030AADF8003095
:10462000BDF80030ADF80030BDF80050A31C1D806F
:10463000C0B2ADF80000BDF80000ADF80000BDF854
:1046400000001880BCF80C00ADF80000BDF80000B8
:10465000ADF80000BDF800002080080AADF80000A9
:10466000BDF80000ADF80000BDF800001880C8B229
:10467000ADF80000BDF80000ADF80000BDF8000086
:104680001880BCF8080020801A8038BC70470000F1
:104690003C090020FEFF07602DE9F807121A521CA2
:1046A000DDF820A092B2994284BFBDE8F8077047B8
:1046B000DFF8D4C0354C050A00F0FF09BCF80A80C9
:1046C000BCF80C70BCF8086004F1020C1FFA8AF008
:1046D000ADF80080BDF800A0ADF800A0BDF800A0C6
:1046E000A4F800A0ADF80050BDF800A0ADF800A0FF
:1046F000BDF800A0ACF800A0ADF80090BDF800A097
:10470000ADF800A0BDF800A0ACF800A0ADF80070B6
:10471000BDF800A0ADF800A0BDF800A0A4F800A06E
:104720004FEA112AADF800A0BDF800A0ADF800A036
:10473000BDF800A0ACF800A001F0FF0AADF800A0A1
:10474000BDF800A0ADF800A0BDF800A0ACF800A036
:1047500026808AB112F0010A18BFACF80000924519
:104760000AD200BFACF80000ACF800000AF1020A5F
:104770001FFA8AFA9245F5D3491C89B29942A7D902
:10478000BDE8F807704700003C090020FEFF076005
:104790002DE9F04FFF4895B00024016841F0020177
:1047A000016000680FA900F00200009002200F9045
:1047B00001201090119003201290F748FDF744F863
:1047C000F6484FF0204110260160F549C0E9011478
:1047D000C460C0E9044684613102C461C0E9094192
:1047E0008900C0E90B4189014463C0E90E410F25EE
:1047F000CDE908544FF03C0A0E940827CDF828A0C4
:10480000092003970494CDE9010401AA08A9E3480B
:104810000794FEF7B7FB32200AF02AFCD320ADF84C
:104820000000BDF80000ADF80000BDF80000DD4C50
:104830002080A01C0188ADF80010BDF80010DFF842
:1048400068B30188ADF80010BDF800100188ADF81C
:104850000010BDF800104FF6FF72008802EA012137
:10486000ADF80000BDF8000049F241390843ABF84B
:1048700004004FF02A08484540F0C483CF20ADF82B
:104880000000BDF80000ADF80000BDF80000208079
:104890000021ADF80010BDF80000ADF80000BDF833
:1048A0000020A01C0280C122ADF80020BDF800301D
:1048B000ADF80030BDF8003003803023ADF8003093
:1048C000BDF800C0ADF800C0BDF800C0A0F800C041
:1048D0004FF0ED0CADF800C0BDF800C0ADF800C061
:1048E000BDF800C0A4F800C04FF0640CADF800C0E3
:1048F000BDF800C0ADF800C0BDF800C0A0F800C011
:104900004FF0030CADF800C0BDF800C0ADF800C01A
:10491000BDF800C0A0F800C04FF0120CADF800C008
:10492000BDF800C0ADF800C0BDF800C0A0F800C0E0
:104930004FF0810CADF800C0BDF800C0ADF800C06C
:10494000BDF800C0A0F800C04FF0E80CADF800C002
:10495000BDF800C0ADF800C0BDF800C0A4F800C0AC
:104960004FF0850CADF800C0BDF800C0ADF800C038
:10497000BDF800C0A0F800C0ADF80060BDF800C0F0
:10498000ADF800C0BDF800C0A0F800C04FF07A0C30
:10499000ADF800C0BDF800C0ADF800C0BDF800C063
:1049A000A0F800C04FF0CB0CADF800C0BDF800C0BF
:1049B000ADF800C0BDF800C0A4F800C04FF0390C3D
:1049C000ADF800C0BDF800C0ADF800C0BDF800C033
:1049D000A0F800C04FF02C0CADF800C0BDF800C02E
:1049E000ADF800C0BDF800C0A0F800C0ADF80010E0
:1049F000BDF800C0ADF800C0BDF800C0A0F800C010
:104A00004FF0340CADF800C0BDF800C0ADF800C0E8
:104A1000BDF800C0A0F800C04FF0020CADF800C017
:104A2000BDF800C0ADF800C0BDF800C0A0F800C0DF
:104A30004FF0F70CADF800C0BDF800C0ADF800C0F5
:104A4000BDF800C0A4F800C04FF0200CADF800C0C5
:104A5000BDF800C0ADF800C0BDF800C0A0F800C0AF
:104A60004FF0EA0CADF800C0BDF800C0ADF800C0D2
:104A7000BDF800C0A4F800C0ADF80010BDF800C03B
:104A8000ADF800C0BDF800C0A0F800C0ADF800103F
:104A9000BDF800C0ADF800C0BDF800C0A0F800C06F
:104AA0004FF0C00CADF800C0BDF800C0ADF800C0BC
:104AB000BDF800C0A4F800C04FF01B0CADF800C05A
:104AC000BDF800C0ADF800C0BDF800C0A0F800C03F
:104AD000ADF80020BDF80020ADF80020BDF80020A2
:104AE00022800122ADF80020BDF800C0ADF800C062
:104AF000BDF800C0A0F800C04FF0C50CADF800C074
:104B0000BDF800C0ADF800C0BDF800C0A4F800C0FA
:104B1000ADF80030BDF800C0ADF800C0BDF800C071
:104B2000A0F800C0ADF80030BDF80030ADF800309E
:104B3000BDF800300380C723ADF80030BDF8003069
:104B4000ADF80030BDF800302380B723ADF8003059
:104B5000BDF80030ADF80030BDF8003003803623DA
:104B6000ADF80030BDF80030ADF80030BDF80030D1
:104B700023804823ADF80030BDF80030ADF8003098
:104B8000BDF8003003803A23ADF80030BDF80030A6
:104B90000CE000003038024000040240EC08002025
:104BA000040100A0FEFF07603C090020ADF80030C2
:104BB000BDF8003023805523ADF80030BDF800303B
:104BC000ADF80030BDF800300380B123ADF80030FF
:104BD000BDF80030ADF80030BDF800302380ADF8EE
:104BE0000010BDF80030ADF80030BDF80030038093
:104BF0001A23ADF80030BDF80030ADF80030BDF834
:104C000000300380B623ADF80030BDF80030ADF8B9
:104C10000030BDF8003023800A23ADF80030BDF825
:104C200000C0ADF800C0BDF800C0A0F800C04FF053
:104C3000A20CADF800C0BDF800C0ADF800C0BDF8D2
:104C400000C0A0F800C04FF0F20CADF800C0BDF8F5
:104C500000C0ADF800C0BDF800C0A4F800C0ADF8B9
:104C60000010BDF800C0ADF800C0BDF800C0A0F84D
:104C700000C04FF0260CADF800C0BDF800C0ADF884
:104C800000C0BDF800C0A4F800C0ADF80020BDF819
:104C900000C0ADF800C0BDF800C0A0F800C04FF0E3
:104CA000E00CADF800C0BDF800C0ADF800C0BDF824
:104CB00000C0A4F800C0ADF80050BDF800C0ADF8C9
:104CC00000C0BDF800C0A0F800C0ADF80080BDF87D
:104CD00000C0ADF800C0BDF800C0A0F800C04FF0A3
:104CE000280CADF800C0BDF800C0ADF800C0BDF89C
:104CF00000C0A0F800C0ADF80070BDF800C0ADF86D
:104D000000C0BDF800C0A0F800C04FF00E0CADF818
:104D100000C0BDF800C0ADF800C0BDF800C0A0F8EC
:104D200000C0ADF80070BDF800C0ADF800C0BDF81F
:104D300000C0A0F800C04FF0540CADF800C0BDF8A2
:104D400000C0ADF800C0BDF800C0A0F800C04FF032
:104D5000A90CADF800C0BDF800C0ADF800C0BDF8AA
:104D600000C0A0F800C04FF0430CADF800C0BDF883
:104D700000C0ADF800C0BDF800C0A0F800C0ADF89C
:104D80000030BDF80030ADF80030BDF800300380D1
:104D9000ADF80050BDF80030ADF80030BDF800307F
:104DA0000380ADF80010BDF80030ADF80030BDF85C
:104DB00000300380ADF80010BDF80030ADF80030D1
:104DC000BDF800300380ADF80010BDF80030ADF83C
:104DD0000030BDF800300380ADF80010BDF80030A1
:104DE000ADF80030BDF800300380E123ADF80030AD
:104DF000BDF80030ADF80030BDF800302380ADF8CC
:104E00000010BDF80030ADF80030BDF80030038070
:104E10001523ADF80030BDF80030ADF80030BDF816
:104E2000003003801723ADF80030BDF80030ADF836
:104E30000030BDF8003003800723ADF80030BDF826
:104E40000030ADF80030BDF8003003804FF0110C99
:104E5000ADF800C0BDF80030ADF80030BDF800304E
:104E600003800623ADF80030BDF80030ADF8003007
:104E7000BDF8003003802B23ADF80030BDF8007082
:104E8000ADF80070BDF8007007805627ADF80070CF
:104E9000BDF80070ADF80070BDF800700780ADF887
:104EA00000A0BDF80070ADF80070BDF8007007807C
:104EB0000527ADF80070BDF80070ADF80070BDF8C2
:104EC00000700780ADF80060BDF80060ADF80060CC
:104ED000BDF800600680ADF80050BDF80060ADF888
:104EE0000060BDF8006006803F26ADF80060BDF8A8
:104EF0000070ADF80070BDF800700780ADF800607C
:104F0000BDF80070ADF80070BDF800700780ADF816
:104F10000050BDF80050ADF80050BDF800500580BD
:104F2000ADF80030BDF80030ADF80030BDF800300D
:104F30002380ADF80010BDF80030ADF80030BDF8AA
:104F400000300380ADF80010BDF80030ADF800303F
:104F5000BDF800300380ADF80020BDF80020ADF8AA
:104F60000020BDF800200280ADF80060BDF80020F0
:104F7000ADF80020BDF800200280ADF80080BDF83B
:104F80000020ADF80020BDF800202280ADF8001010
:104F9000BDF80020ADF80020BDF800200280ADF87B
:104FA0000010BDF80020ADF80020BDF80020028000
:104FB000ADF80010BDF80010ADF80010BDF80010FD
:104FC0000180EF21ADF80010BDF80010ADF8001021
:104FD000BDF800100180ADF800C0BDF80000ADF8CC
:104FE0000000BDF80000208078200AF041F8292058
:104FF000ADF80000BDF80000ADF80000BDF80000FD
:10500000A4F80000BBF80400484519D14FF0204037
:10501000D0F81C1121F00F01C0F81C11D0F81C11A0
:1050200021F47061C0F81C11D0F81C1141F003018B
:10503000C0F81C11D0F81C1141F40071C0F81C110B
:105040004FF001008BF806004FF4A070ABF80000A1
:105050004FF0F000ABF8020009D14FF02C00ABF894
:105060000800ABF80A804FF02B00ABF80C004FF0B3
:10507000000000F031F816490120C1F88402BBF8A5
:105080000000BBF802104FF6FF7501FB00F600218F
:10509000084600F0FDF8BBF808002080002E04BF91
:1050A00015B0BDE8F08F16F0010003D0094A4FF6A5
:1050B000FF711180B04232BF064915B0BDE8F08FD4
:1050C0000D800D80801CB042FAD315B0BDE8F08F82
:1050D000008040420000086038B46B4B00211A4643
:1050E00093F806C0928841F66314BCF1010F05D015
:1050F000BCF1000F08BFA24202D018E0A24216D0B5
:10510000082814D2DFE800F00406080A0C0E10127A
:1051100006200CE007200AE0042008E0052006E055
:10512000012004E0002002E0032000E00220A2F5BC
:10513000134CBCF1410C1CBF38BC7047082812D27C
:10514000DFE800F0110406080A0C0E1080210AE0C6
:10515000402108E0C02106E0202104E0602102E0B7
:10516000A02100E0E02145F2105C62450CBF4FF445
:1051700058503620A2F5A645103D18BF624503D011
:10518000A24218BF41F00801DFF800C1ACF80000EE
:105190000CF102000180A2420CD011F0200F3A491C
:1051A0004A88098802D08A4204D901E0914201D993
:1051B0001A8059805989ADF80010BDF80010ADF87B
:1051C0000010BDF80010ACF800100021ADF8001080
:1051D000BDF80020ADF80020BDF800200280ADF839
:1051E0000010BDF80020ADF80020BDF800200280BE
:1051F0001A88521E140AADF80040BDF80040ADF800
:105200000040BDF800400480D2B2ADF80020BDF8E7
:105210000020ADF80020BDF8002002809A89ADF88A
:105220000020BDF80020ADF80020BDF80020ACF84B
:105230000020ADF80010BDF80020ADF80020BDF84A
:1052400000200280ADF80010BDF80010ADF800108D
:10525000BDF8001001805988491E0A0AADF80020E7
:10526000BDF80020ADF80020BDF800200280C9B2D2
:10527000ADF80010BDF80010ADF80010BDF800103A
:10528000018038BC704700003C090020FEFF076029
:1052900018B4224B5A89ADF80020BDF80020ADF8B3
:1052A0000020BDF80020DFF878C0ACF80020020A2A
:1052B000ADF80020BDF80020ADF80020BDF800409A
:1052C0000CF102021480C0B2ADF80000BDF800007D
:1052D000ADF80000BDF8000010809889ADF800001E
:1052E000BDF80000ADF80000BDF80000ACF800000B
:1052F000080AADF80000BDF80000ADF80000BDF8E8
:1053000000001080C8B2ADF80000BDF80000ADF894
:105310000000BDF80000108018BC70473C09002058
:10532000FEFF07602DE9FF4F8AB08E4613F007009D
:1053300018BF012000EBD3004FEA530C10FB0CF018
:1053400010F0FF0CA2F120004FF00002CDE9002C7C
:10535000C0B204BF0EB0BDE8F08F00EB4002DFF832
:1053600018C20CEB820204920CF2744202EB00129F
:10537000039200EBC0020CF6642C0CEB820202924A
:105380000CF65C5202EBC01005907C48008880B29D
:1053900008907B48B0F80A90B0F80C800789B0F804
:1053A00002A0008807900C2B5CD0102B5ED0182B2D
:1053B00060D0202B1CBF0EB0BDE8F08F009A05987E
:1053C000805C0A9A0024160A5FFA82F510F0800FBA
:1053D00054D0ADF81890BDF81820ADF81820BDF8DD
:1053E0001820DFF8A0C1ACF80020ADF81860BDF8B7
:1053F0001820ADF81820BDF818B00CF10202A2F880
:1054000000B0ADF81850BDF818B0ADF818B0BDF840
:1054100018B0A2F800B0ADF81880BDF818B0ADF81B
:1054200018B0BDF818B0ACF800B04FEA112BADF8C9
:1054300018B0BDF818B0ADF818B0BDF818B0A2F8A3
:1054400000B001F0FF0BADF818B0BDF818B0ADF822
:1054500018B0BDF818B0A2F800B0ACF80070DDF8D4
:1054600020C05CE0009A0498805CAAE7009A039848
:10547000805CA6E7009A0298805CA2E7179AEABBD4
:105480003E4AB2F804C0CDF818C0ADF82490BDF87B
:105490002420ADF82420BDF82420DFF8E8C0ACF8C3
:1054A0000020ADF82460BDF82420ADF82420BDF81C
:1054B00024B00CF10202A2F800B0ADF82450BDF8FF
:1054C00024B0ADF824B0BDF824B0A2F800B0ADF817
:1054D0002480BDF824B0ADF824B0BDF824B0ACF8F9
:1054E00000B04FEA112BADF824B0BDF824B0ADF8F0
:1054F00024B0BDF824B0A2F800B000E011E001F043
:10550000FF0BADF824B0BDF824B0ADF824B0BDF861
:1055100024B0A2F800B0ACF80070DDF818C0A2F812
:1055200000C04006491C000E89B28A459CBF0EB0DF
:10553000BDE8F08FA1EB0E029A420CD10A98714699
:10554000401C80B20A900A9A079890429CBF0EB005
:10555000BDE8F08F04E0621CD4B2082CFFF436AF33
:105560000098019A401CC0B2009082423FF61BAFE7
:105570000EB0BDE8F08F0000C8BA0208B0000020ED
:105580003C090020FEFF07602DE9FF4F4FF00006A9
:1055900081B01D0091468046344604BF05B0BDE889
:1055A000F08FA5F1010A0E984FF0000B4708281B59
:1055B000401E0A22C0B20121031EA0F101000ADD33
:1055C00010F0010F08BF0A21401C401003D05143C6
:1055D0005143401EFBD1B9FBF1F01649A1FB00215C
:1055E000C908494201EB810100EB41002EB9544545
:1055F00003DA002818BF012611D03030C2B207FBF1
:10560000048080B2CDF800B00E9B0299FFF78AFEAD
:10561000601CC4B2AC42CAD305B0BDE8F08F07FB32
:10562000048080B2CDF800B020220E9B0299FFF7D3
:1056300079FEEDE7CDCCCCCC2DE9F84F044600F057
:10564000FF08DDE90A7510190E461FFA80FA98194D
:105650001FFA80F9287820385E2894BF4FF0000B9D
:10566000BDE8F88FA24502D8F019444686B2B1458C
:1056700098BFBDE8F88FCDF800B02A783B46314698
:105680002046FFF74FFE04EB570084B215F8010FD8
:1056900020385E28E6D9BDE8F88F00002DE9FF4FDD
:1056A0004FF0000981B01E00924680464C4604BF70
:1056B00005B0BDE8F08FA6F1010B0F9800F00105D1
:1056C0000E984708301B401E0A22C0B20121031E5B
:1056D000A0F101000ADD10F0010F08BF0A21401CF3
:1056E000401003D051435143401EFBD1BAFBF1F0AF
:1056F0001B49A1FB0021C908494201EB810100EBD4
:105700004100B9F1000F06D15C4504DA002818BF4A
:105710004FF0010910D03030C2B207FB048080B2D4
:1057200000950E9B0299FFF7FDFD601CC4B2B442C8
:10573000C8D305B0BDE8F08F0F980E9B10F0800F16
:1057400007FB048080B2009504D030220299FFF755
:10575000E9FDEAE720220299FFF7E4FDE5E7000012
:10576000CDCCCCCC114810B5016886B041F0010118
:10577000016000680E4C00F001000590C020009010
:105780000120019002900320039069462046FCF717
:105790005BF8012240212046FCF779F900228021A4
:1057A0002046FCF774F906B010BD00003038024006
:1057B00000000240154808B5016841F4001101607D
:1057C000016801F400110091016841F48001016059
:1057D0000068002200F48000009005210C20FCF7F6
:1057E000B5F90C20FCF7A3F9002206210E20FCF7E6
:1057F000ADF90E20FCF79BF9002207214620FCF7AB
:10580000A5F9BDE808404620FCF791B930380240C0
:10581000FEE7704770B504460D460548FCF782FD6B
:10582000291B491CB0FBF1F201FB1200204470BDA2
:10583000A40A002070B50E4E0C480024306030469B
:10584000FCF7A5FD42F2107504E0601C84B20A204A
:1058500009F03EFC3068406810F0010F01D1AC4205
:10586000F3D3AC422CBF0120002070BD00080650CD
:10587000A40A00200148FCF7E5BD0000840A0020CE
:105880000021092810D94242CD2312FB03F2D31282
:10589000A3EBE2725242002A06DD11464A4202EBB5
:1058A000820200EB4200C0B2090740EA1160704773
:1058B00010B5254886B023490024C0E900147F2193
:1058C0008160FF21C0E9031444618461FCF75AFE42
:1058D00000281EBF022006B010BD00211A48FCF7A8
:1058E0007EFDA0F5A041503928D007231E228DF857
:1058F000003000218DF801208DF8021040208DF835
:1059000003000A46039469460F480494FCF77EFF9F
:1059100006230C218DF802308DF8011014228DF829
:1059200000308DF80320002269460748FCF7D8FEB6
:1059300045F2500200210448FCF756FD06B0002055
:1059400010BD000000280040840A002008B58DF832
:1059500002208DF801108DF800308DF80300002230
:1059600069460248FCF7BCFE08BD0000840A00201E
:1059700000B585B08DF800008DF8011000208DF87D
:1059800002200390024604908DF8033069460248D5
:10599000FCF73CFF05B000BD840A00200148FCF77D
:1059A00029BD0000840A00200E4810B5016886B0A9
:1059B00041F00401016000680B4C00F00400059008
:1059C0000F2000900120019002900320039069466F
:1059D0002046FBF739FF00220F212046FCF757F83D
:1059E00006B010BD303802400008024081B00844C3
:1059F00014300090006801B0704700000148FCF7C7
:105A0000C1BF000088070020D0F8800070470968F7
:105A1000C0F88010002070478160C26840F24D419C
:105A20006FF30B021143C16041F288320D2100F087
:105A300011B8000000218160C16840F24C426FF350
:105A40000B011143C160024A0C2100F003B80000B1
:105A500000E1F5055A4B4FF4FA5C81B01B68B3FBCB
:105A6000FCF35A43521E03D24FF0004001B070477E
:105A7000436B13F0450FF5D0426B12F0040F04D0C6
:105A800004218163084601B07047426B12F0010F98
:105A900004D001218163084601B070470269D2B287
:105AA0008A421EBF012001B0704740F2FF5181635E
:105AB0001430009000684349084202BF002001B042
:105AC000704710F0004F1EBF4FF0007001B07047DC
:105AD00010F0804F1EBF402001B0704710F0005FF3
